:100000000C9434000C943E000C943E000C943E0082
:100010000C943E000C943E000C943E000C943E0068
:100020000C943E000C943E000C943E000C943E0058
:100030000C943E000C9440000C943E000C943E0046
:100040000C943E000C943E000C943E000C943E0038
:100050000C943E000C943E000C943E000C943E0028
:100060000C943E000C943E0011241FBECFEFD8E04C
:10007000DEBFCDBF0E9458000C9470000C940000AD
:100080001F920F920FB60F9211248F939F9395B1E9
:1000900080E2892785B98BED9BE090938500809362
:1000A00084009F918F910F900FBE0F901F90189515
:1000B000F8941092800010928100809181008460F9
:1000C000809381008BED9BE090938500809384006A
:1000D00080916F00816080936F00259A7894FFCFA4
:0400E000F894FFCFC2
:00000001FF
